:1000000000308A00292800000A108A100A1182078D
:100010003F3406345B344F3466346D347C340734FB
:100020007F346F342230840083130008031926289C
:100030000130F800F701F70B1B28F80B1A284A309B
:10004000F700F70B21282428800B18288A110A12A0
:100050005528840183131F30830583161F149F14B2
:100060001F159F1109121F149F141F159F11831232
:100070001F1090010030F8009200003083169200AB
:10008000831297019D018316860083128601A001C9
:1000900020080A3C031C592820080420A1008600DF
:1000A0000230A100FA30A2001228A10B5228A00AA7
:0600B00048284728630008
:02400E00393F38
:00000001FF
;PIC16F877
