:1000000000308A0048280000FF00030E8301A10091
:100010000A08A0008A010408A2007708A300780853
:10002000A4007908A5007A08A6007B08A70083131E
:1000300083128C308400001C1F280C1832282208E0
:1000400084002308F7002408F8002508F900260892
:10005000FA002708FB0020088A00210E8300FF0E0B
:100060007F0E09008A110A123528F6308F002830D9
:100070008E00A80A2808323C031906142808643C9C
:10008000031D44280610A8010C108A110A121F280B
:10009000840183131F30830583161F149F141F15BB
:1000A0009F118312A801FF30A900831609121F14A3
:1000B0009F141F159F1183121F100030F80092002B
:1000C00000308316920083122915290883168700B1
:1000D00083129701A91429088316870083129D01B2
:1000E000003083168600F63083128F003C308E007D
:1000F0008601B530900083160C14C03083128B0437
:0401000080286300F0
:02400E00393F38
:00000001FF
;PIC16F877
