:1000000000308A001B2800002E3084008313000873
:10001000031918280130F800F701F70B0D28F80B29
:100020000C284A30F700F70B13281628800B0A28F3
:100030008A110A128328840183131F3083058316D3
:100040001F149F141F159F113F308312A20006300A
:10005000A3005B30A4004F30A5006630A6006D30D1
:10006000A7007C30A8000730A9007F30AA006F30BD
:10007000AB00FF30AC00831609121F149F141F152C
:100080009F1183121F1090010030F8009200003081
:100090008316920083122C152C0883168700831276
:1000A0009701AC142C088316870083129D01003041
:1000B0008316860083128601A0012008093C031CD8
:1000C0008728A1012108073C031C7E282230200735
:1000D000840083130008AD00F7002108F80003191D
:1000E00075280310F70CF80B71287718792806107B
:1000F0007A28061486148610A10A62280230AD0000
:10010000FA30AE000428AD0B8028A00A5D285C28D8
:0201100063008A
:02400E00393F38
:00000001FF
;PIC16F877
