:1000000000308A00652800004908FB3E03181E28BE
:10001000053E21281030F8001E281E280830F80060
:100020001E281E280430F8001E281E280230F80062
:100030001E281E280130F8001E281E288A110A12C8
:100040003D280A108A100A1182070A280E28122851
:1000500016281A280130C6004508460203186428ED
:10006000C8014808093C031C6228C7014708043C32
:10007000031C60284708C90004287808870047083F
:10008000430784008313441883170008C9008600BF
:100090000130C900493084008313000803195E2829
:1000A0000130F800F701F70B5328F80B52284A30BB
:1000B000F700F70B59285C28800B5028C70A362810
:1000C000C80A3128C60A2C280034840183131F3043
:1000D000830583161F149F141F159F11033083126D
:1000E000A0007530A1007630A2007530A300033067
:1000F000A400A5013630A600A700A8004930A90039
:100100004130AA003E30AB00AC00AD005D30AE0027
:10011000AF013E30B000B100B2004130B300B401D5
:10012000B630B500B600B700BE30B8007730B900C1
:10013000BA004130BB007730BC00BD006B30BE0060
:100140005D30BF00C001C1006B30C20083160912D0
:100150001F149F141F159F1183121F109001003050
:10016000F8009200003083169200831297019D01DF
:100170008316860087008312C4012030C300143028
:10018000C5002A20C4012530C3001430C5002A2030
:10019000C4012A30C3001430C5002A20C4012F3006
:1001A000C3001430C5002A20C4013430C300143009
:1001B000C5002A20C4013930C3001430C5002A20EC
:1001C000C4013E30C3001430C5002A20BC2863009F
:02400E00393F38
:00000001FF
;PIC16F877
