:1000000000308A0059280000FF00030E8301A10080
:100010000A08A0008A010408A2007708A300780853
:10002000A4007908A5007A08A6007B08A70083131E
:1000300083128B1E1D280B193028220884002308E8
:10004000F7002408F8002508F9002608FA00270818
:10005000FB0020088A00210E8300FF0E7F0E09009E
:100060008A110A1233283C308100A80A28080A3C69
:10007000031906142808143C031906100B118A11E1
:100080000A121D282B3084008313000803195628F8
:100090000130F800F701F70B4B28F80B4A284A30DB
:1000A000F700F70B51285428800B48288A110A12B0
:1000B0009B28840183131F30830583161F149F140C
:1000C0001F159F118312A801FF30A9008316091282
:1000D0001F149F141F159F1183121F1090010030D1
:1000E000F800920000308316920083122915290827
:1000F0008316870083129701A914290883168700A5
:1001000083129D01003083168600831286013C30E5
:10011000810083160108C0390738810083128B12D1
:100120000B1D9D288B16C0308B0486100430AA004E
:10013000FA30AB004228AA0B98288B16C0308B04EB
:060140008614A1286300F3
:02400E00393F38
:00000001FF
;PIC16F877
