:02000000502886
:10000800FF00030E8301A7000A08A6008A017008F2
:10001800A0000B1D1B28643081000B11A30A0130BE
:1000280085062308643A031D1B28A20AA301200899
:10003800F00026088A00270E8300FF0E7F0E0900B5
:100048008316031381128111011581100114643084
:0A005800831281008B168B1708003D
:0E0062008312031325088A0024088200080078
:1000700031208A110A128000840AA40A0319A50AF1
:08008000F003031D38280800FD
:100088000730831203139F008316850186018312AC
:08009800850186012420080007
:1000A00083120313A101A201A30144202108220607
:1000B00003195E28220886002208A10056285F281E
:02400E00182177
:00000001FF
