:1000000000308A0040280000FF00030E8301A10099
:100010000A08A0008A010408A2007708A300780853
:10002000A4007908A5007A08A6007B08A70083131E
:1000300083128B1E1D280B193028220884002308E8
:10004000F7002408F8002508F9002608FA00270818
:10005000FB0020088A00210E8300FF0E7F0E09009E
:100060008A110A123328FE308100A80A2808860067
:1000700028080F3C0319A8010B118A110A121D2828
:10008000840183131F30830583161F149F141F15CB
:100090009F118312A801FF30A900831609121F14B3
:1000A0009F141F159F1183121F1090010030F8003C
:1000B00092000030831692008312291529088316B6
:1000C000870083129701A9142908831687008312D9
:1000D0009D01103083168500003086008312860152
:1000E00083160108C03930388100FE308312810048
:0A00F0008B16C0308B047B286300E0
:02400E00393F38
:00000001FF
;PIC16F877
