:1000000000308A0004280000840183131F30830518
:1000100083161F149F141F159F11FF308312A00019
:10002000831609121F149F141F159F1183121F108E
:100030009001201520088316870083129701A014D1
:1000400020088316870083129D01003083168600E6
:1000500001308500831286010F30F70007308101DF
:100060008130840083130008F03907388000640071
:100070000008F739F719F039770480000130860657
:0E008000051C44286400402863003E286300ED
:02400E003D3F34
:00000001FF
;PIC16F877
