:1000000000308A0043280000FF00030E8301A10096
:100010000A08A0008A010408A2007708A300780853
:10002000A4007908A5007A08A6007B08A70083131E
:1000300083128C308400001C1F280C1832282208E0
:1000400084002308F7002408F8002508F900260892
:10005000FA002708FB0020088A00210E8300FF0E0B
:100060007F0E09008A110A123528FF308F00FD30FB
:100070008E00A80A28088600280F3F28A8010C1027
:100080008A110A121F28840183131F3083058316E7
:100090001F149F141F159F118312A80183160912A4
:1000A0001F149F141F159F1183121F100030F8009A
:1000B0009200003083169200831297019D018316EF
:1000C000860001308700FF3083128F00FD308E00E4
:1000D00086018730900083160C14C03083128B0485
:0400E0007028630021
:02400E00393F38
:00000001FF
;PIC16F877
