:1000000000308A005F280000FF00030E8301A1007A
:100010000A08A0008A010408A2007708A300780853
:10002000A4007908A5007A08A6007B08A70083131E
:1000300083128C308400801C1F288C1832282208E0
:1000400084002308F7002408F8002508F900260892
:10005000FA002708FB0020088A00210E8300FF0E0B
:100060007F0E09008A110A124A282B30840083135C
:100070000008031949280130F800F701F70B3E2862
:10008000F80B3D284A30F700F70B44284728800B2F
:100090003B280034A80A06140430AA00FA30AB004A
:1000A0003520AA0B4E2806100430AA00FA30AB0007
:1000B0003520AA0B56288C108A110A121F28840199
:1000C00083131F30830583161F149F141F159F1160
:1000D0008312A801FF30A900831609121F149F1470
:1000E0001F159F1183121F109001291529088316CF
:1000F000870083129701A9142908831687008312A9
:100100009D01003083168600013085008312860130
:100110007830F80006389200FA30831692008C147A
:10012000C03083128B04051C97282808860093286A
:0201300063006A
:02400E00393F38
:00000001FF
;PIC16F877
