:1000000000308A008628000022086B3A0319122863
:100010000A3A03191D28033A03192828013A03193B
:1000200033283E28831685010D3083128500831600
:1000300086018312230886003F288316850101303C
:1000400083128500831686018312230886003F28C9
:10005000831685010530831285008316860183127D
:10006000230886003F288316850109308312850006
:10007000831686018312230886003F283F28003418
:1000800022086B3A03194E280A3A03195B28033AEF
:1000900003196828013A03197528822883168501F7
:1000A0000E3083128500FF30831686008312060807
:1000B000F800832883288316850102308312850087
:1000C000FF308316860083120608F80083288328F1
:1000D00083168501063083128500FF308316860063
:1000E00083120608F80083288328831685010A30C6
:1000F00083128500FF308316860083120608F800FD
:100100008328832883288A110A12BA28840183133A
:100110001F30830583161F149F141F159F11FF3076
:100120008312A100831609121F149F141F159F111B
:1001300083121F1090010030F800920000308316E7
:1001400092008312211521088316870083129701DC
:10015000A11421088316870083129D016B30A20031
:100160008930A30004206130A200A3010420633081
:10017000A20040287808A0006130A2002008A30057
:060180000420B728630013
:02400E00393F38
:00000001FF
;PIC16F877
