:1000000000308A0004280000840183131F30830518
:1000100083161F149F141F159F11FF308312A10018
:1000200083161F149F141F159F1183121F10941203
:10003000A112210883168700831221162108831636
:1000400087008312A11121088316870001308312D3
:1000500094000030831694000108C73908388100E5
:10006000831290010030F800920000308316920055
:1000700001308500003086008312201005182014FE
:0E008000201844280610452806143D28630069
:02400E000B0F96
:00000001FF
;PIC16F877
